:100000000C9429070C9470070C9470070C94091D2C
:100010000C9470070C9470070C9470070C94700784
:100020000C9470070C9470070C94F42F0C94C83047
:100030000C94172B0C9470070C9470070C94700799
:100040000C9470070C9470070C9470070C94700754
:100050000C9470070C948A2B0C9470070C94700706
:100060000C9470070C9470070C9470070C94700734
:100070000C9470070C9470070C9470070C94700724
:100080000C9470070C9470070C9470070C94700714
:100090000C9470070C9470070C9470070C94700704
:1000A0000C9470070C9470070C947007000000000B
:1000B00000000000000000000000E01C0205022417
:1000C000040402A91EE0000000000000000000007F
:1000D0000000E010086810080403000000000000A1
:1000E000000206827C030000000000000000000007
:1000F00000000102040C1010202020283E1C2020AB
:100100003E0F111F00000000000000000000000072
:1001100000000000000000000000E01C02050224B6
:10012000040402A91EE0000000000000000000001E
:1001300000E09008186010080403000000000000B0
:1001400000020E827C03000000000000000000009E
:1001500000000102040C1010202020283E1C20204A
:100160003E0F111F00000000000000000000000012
:100170000080402010909090A0C080808070081473
:100180000890101008A47880000000000000000013
:10019000000708FC010000000080000001000000D2
:1001A0000000000818EA100F000000000000000026
:1001B000000000031C20203C0F111F030618202004
:1001C0003C0C121E010000000000000000000000B6
:1001D00000008040202020408000000000E0102827
:1001E000102020201048F000000000000000000057
:1001F000001F20F8020101010101010103000000BC
:100200000001001030D5201F000000000000000099
:100210000000003F20300C020509121E021C1408C9
:1002200010202C320100000000000000000000003F
:10023000E0100808C8B08080808080808040403C0A
:1002400014040890180408B040800000000000006A
:100250000102C4A4FC0000000080000000000000B7
:1002600000000080C858282A100F0000000000007D
:10027000000E09040404040203020101020204083E
:1002800010262B320405060000000000000000E0EC
:100290001010F0000000000000000080808078282E
:1002A00008102030081020408000000000000003EB
:1002B00004081011F9010101010101000000000012
:1002C0000000000110B05055201F00000000000089
:1002D000000000000001020C10202837021E202020
:1002E000180C141E010000000000000000C02010C7
:1002F000D030000000000000008080403C14040862
:1003000090180408B04080000000000000030408BA
:100310001011F901010101010100000000000000BD
:1003200080C848282A100F000000000000000000CC
:1003300000000001020C10202837020204081026D9
:100340002B320405060000000000000000E0101041
:10035000F00000000000000000808040402C1404E9
:100360000890180408B04080000000000003040852
:100370001011F9010101010101000000000000005D
:100380000080C048282A100F204A091000000000F1
:1003900000000001020C1020283702020408102679
:1003A0002B320405060000000000000000000000E1
:1003B0000000804040404080000000000000C0403D
:1003C000408000804080000000000000000000002D
:1003D0001E21F004020202020302020404040301CB
:1003E000000009018080AB04F8000000000000005C
:1003F0000000031C20203C0F111F0206182020388B
:1004000008101804040202010000000000000000AF
:100410000000804040408000000000000000E0A09C
:10042000204080C02040800000000000000000004C
:100430003E41F0040202020302020204040201002F
:1004400000000400404055827C00000000000000D5
:1004500000003F20300C020509121E04181008107D
:100460002028340602010100000000002094959627
:100470002020B4B5B62020D4D5D620002097989956
:100480002020B7B8B92020D7D8D92000209A9B9C2B
:100490002020BABBBC2020DADBDC2000209D9E9F00
:1004A0002020BDBEBF2020DDDEDF2000204A627399
:1004B00074008081828384A0A1A2A3A4C0C1C2C30E
:1004C000C400ABAC00CFD000C600CA00C800A9AAC7
:1004D00000B1B2008B8C00CDCE00C500C900C700B2
:1004E000CB00898A00919200A7A800AFB000C60097
:1004F000CA00C800A5A600ADAE008788008F900096
:10050000C500C900C700CB008586008D8E00202065
:1005100020202000005714001A00080015001700C2
:10052000015704001600070009000A0002571D00C9
:100530001B00060019000500000000000000E30099
:100540002A5D2C002A00130012000C0018001C0069
:10055000340033000F000E000D000B00035738006D
:100560003700360010001100000000000000E774A2
:100570002B5D280000571E001F00200021002200D4
:1005800001575000520051004F00BE00BD00AC00AA
:10059000AE00AB00AA00A900000000000000E300CC
:1005A0002A5D04572A002700260025002400230086
:1005B000310030002F002E002D00350003574F0072
:1005C0005100520050003502000000000000E774A6
:1005D0002B5D2800A6000000AC00AE00AB000000C0
:1005E00001575000520051004F000000E100BE00D2
:1005F000BD00AA00A900A800000000000000E30060
:100600002A5D04574C007A007D007C007B007E0050
:1006100031004F0051005200500000002872E400E9
:100620004600F500F4002C53000000000000E774C1
:100630002B5D2800C35C0000000000000000C45CCB
:1006400000000000C65CC85CCC5CCA5C005C0000BA
:10065000C75CC95CCD5CCB5C000000000000E00022
:10066000010004572A00000026002500240000573E
:1006700000004F0023002200210052000000500023
:1006800020001F001E005100000000000000270095
:100690000100280000010101010101010101020224
:1006A0000202020202020203030303030303030420
:1006B00004040404040405050505050606060606EB
:1006C000070707070708080808090909090A0A0AA5
:1006D0000B0B0B0C0C0C0D0D0D0E0E0E0F0F0F1047
:1006E00010111111121213131414151516161717D1
:1006F000181819191A1A1B1B1C1D1D1E1E1F20203D
:10070000212222232424252626272829292A2B2C86
:100710002D2D2E2F30313232333435363738393AA9
:100720003B3C3D3E3F404142434445464748494AA1
:100730004C4D4E4F50515354555658595A5B5D5E6F
:100740005F616264656668696B6C6D6F707273750A
:1007500077787A7B7D7E8082838587888A8C8E8F6E
:1007600091939596989A9C9EA0A2A3A5A7A9ABAD9C
:10077000AFB1B3B5B7BABCBEC0C2C4C6C9CBCDCF8A
:10078000D1D4D6D8DBDDDFE2E4E7E9EBEEF0F3F538
:10079000F8FAFDFF00AE00AF00DA0281FFD9F1DB0D
:1007A00020A4A62EAF00A0C000A1C800AED580A88E
:1007B0001FD300408D1420000000000000003E5BAD
:1007C0004F5B3E003E6B4F6B3E001C3E7C3E1C0070
:1007D000183C7E3C18001C577D571C001C5E7F5E39
:1007E0001C0000183C180000FFE7C3E7FF000018DA
:1007F00024180000FFE7DBE7FF0030483A060E0050
:10080000262979292600407F05050700407F052518
:100810003F005A3CE73C5A007F3E1C1C0800081C65
:100820001C3E7F0014227F2214005F5F005F5F0088
:1008300006097F017F00006689956A00606060603C
:10084000600094A2FFA2940008047E040800102017
:100850007E20100008082A1C0800081C2A0808002E
:100860001E10101010000C1E0C1E0C0030383E38EC
:100870003000060E3E0E06000000000000000000E2
:100880005F000000000700070000147F147F1400C1
:10089000242A7F2A12002313086462003649562056
:1008A0005000000807030000001C22410000004126
:1008B000221C00002A1C7F1C2A0008083E08080091
:1008C0000080703000000808080808000000606020
:1008D00000002010080402003E5149453E0000423D
:1008E0007F4000007249494946002141494D33008B
:1008F0001814127F10002745454539003C4A4949E4
:10090000310041211109070036494949360046495D
:1009100049291E00000014000000004034000000BF
:10092000000814224100141414141400004122146D
:1009300008000201590906003E415D594E007C1233
:1009400011127C007F49494936003E414141220055
:100950007F4141413E007F49494941007F090909E2
:1009600001003E41415173007F0808087F000041AB
:100970007F4100002040413F01007F0814224100D8
:100980007F40404040007F021C027F007F0408102F
:100990007F003E4141413E007F09090906003E417A
:1009A00051215E007F091929460026494949320034
:1009B00003017F0103003F4040403F001F204020D3
:1009C0001F003F4038403F006314081463000304D5
:1009D000780403006159494D4300007F41414100C3
:1009E000020408102000004141417F00040201027E
:1009F000040040404040400000030708000020542D
:100A0000547840007F284444380038444444280047
:100A1000384444287F0038545454180000087E0994
:100A200002001824241C78007F0804047800004485
:100A30007D4000002040403D00007F102844000021
:100A400000417F4000007C04780478007C080404A6
:100A500078003844444438007C18242418001824B2
:100A600024187C007C0804040800485454542400D2
:100A700004043F4424003C4040207C001C204020D3
:100A80001C003C4030403C004428102844004C905E
:100A900090907C004464544C4400000836410000AF
:100AA0000000770000000041360800000201020447
:100AB00002003C2623263C0000000000000000004D
:100AC000C0E0F0F8F81800C0F0FCFEFFFFFFFFFFE9
:100AD000FFFF7E00000000F8042252E2424242E2A0
:100AE000522222224282020222220204F80000F84C
:100AF0000402028242224282020202824222122224
:100B000042820204F80000F8FCDEAE1EBEBEBE1E2D
:100B1000AEDEDEDEBE7EFEFEDEDEFEFCF80000F8AF
:100B2000FCFEFE7EBEDEBE7EFEFE0000000000007B
:100B300080804040202010100808101020204040E5
:100B400080808080C0C0E0E0F0F0F8F8F0F0E0E0F5
:100B5000C0C0808080804040202010100808101005
:100B6000202040408080808040C060A050B058A8C5
:100B700050B060A040C0808000F8FCFEFFE000FFA5
:100B8000FFFFFFFFFF80FFFFFFFFFFFFFFFFFF1FD4
:100B9000070100000000001F20444A47424242472C
:100BA0004A44404040404142444440201F00001F0E
:100BB0002040414040404040414041414F4848482A
:100BC0004F4141201F00001F3F7B75787D7D7D7860
:100BD000757B7F7F7F7F7E7D7B7B7F3F1F00001F3C
:100BE0003F7F7E7F7F7F7F7F7E7F00000000000051
:100BF00088885D5D3E3E7C7CF8F87C7C3E3E5D5D99
:100C0000888888885555232347478F8F4747232354
:100C1000555588888888D5D5E2E2C4C48888C4C47C
:100C2000E2E2D5D5888888885DD56BB66DD6ADDA19
:100C30006DD66BB65DD5888800030F1F3F3F3F3FE1
:100C40001F1F3F3F7F7F7F3F3F1F3F7F7F7F7F7C17
:100C50007878381C0F0004F80000F804201F00000A
:100C60001F20FCF80000F8043F1F00001F2004F8BC
:100C70000000F8FC201F00001F3FFCF80000F8FCFB
:100C80003F1F00001F3FFE7EBEDEEEDEBE7EFEFC8E
:100C9000F8007E7E70777777707E7E3F1F000000C1
:100CA0000000000000000000000000000000000044
:100CB0000000010102020404080804040202010108
:100CC00000000000010102020404080804040202FA
:100CD0000101000000000101030307070F0F0707D0
:100CE00003030101000000000101030205060D0AD3
:100CF0000506030201010000480343006F00720073
:100D00006E00650020004B006500790062006F00F6
:100D100061007200640020005200650076002E0021
:100D20003100200028004C0065006700610063006E
:100D300079002000530070006C00690074002900E5
:100D40000000100366006F006F0073007400610004
:100D50006E0000000403090409023B00020100A028
:100D6000FA09040000010301010009211101000139
:100D70002240000705810308000A0904010001035D
:100D8000000000092111010001226D000705820306
:100D900020000A1201100100000008534601000162
:100DA000000102000105010980A101850319012A42
:100DB000B700150126B700950175108100C0050C1C
:100DC0000901A101850419012AA002150126A0022A
:100DD000950175108100C005010906A10185050571
:100DE0000719E029E715002501950875018102051D
:100DF00007190029EF1500250195F07501810205FD
:100E00000819012905950575019102950175039150
:100E100001C005010906A101050719E029E7150030
:100E20002501950875018102950175088101050765
:100E3000190029FF150026FF009506750881000599
:100E40000819012905950575019102950175039110
:100E500001C011241FBECFEFDAE0DEBFCDBF04B664
:100E600003FE27C08091230890912408A0912508B3
:100E7000B09126088730904BA740B04BD1F4109228
:100E8000230810922408109225081092260814BEF8
:100E900084B7877F84BF0FB6F894A89580916000CF
:100EA000886180936000109260000FBEE0E0F8E37C
:100EB000099513E0A0E0B1E0E6E4FAE602C005908F
:100EC0000D92A83EB107D9F728E0A8EEB3E001C023
:100ED0001D92A332B207E1F70E94362D0C94E9343B
:100EE0000C940000CF93DF93A7E6B3E04BE653E00A
:100EF000C1E0D0E08D91E82FE295EF70F0E061A1C4
:100F00008F709E0101C0220F8A95EAF7922F90956B
:100F1000962391A382A1822B82A34A175B0751F7E4
:100F2000DF91CF91089508950C949307209A559AD4
:100F3000289A5D9A08955D9808955D9A0895289875
:100F40000895289A08950E9458090E947207A1E600
:100F5000B3E061E070E08D91E82FE295EF70F0E092
:100F600041A18F709B0101C0220F8A95EAF7922F51
:100F70009095942391A382A1822B82A383E0A7362C
:100F8000B80749F70E949607E0EFF3E0A8EEB3E058
:100F900011921D9283E0E83FF807D1F70E943A09C9
:100FA0008093F8030C94D70C8F929F92AF92BF92CC
:100FB000CF92DF92EF92FF920F931F93CF93DF9325
:100FC00080910101C4E0D0E0882311F0D0E0C0E0BE
:100FD00087E6C82E83E0D82EAE0148515C4F7A01D7
:100FE0008A01912CAA24A394B12C25E0822EF6012B
:100FF00081916F01E82FE295EF70F0E021A18F70F1
:10100000A50102C0440F551F8A95E2F7CA01922F2D
:10101000982B91A392A18095892382A350EA5A9597
:10102000F1F7E1E6F3E020E050E040E03191A32F5A
:10103000A295AF70B0E090968C9190E03F7002C0A6
:10104000959587953A95E2F780FD3CC0C501042E41
:1010500001C0880F0A94EAF7282B4F5F5F4F463094
:10106000510521F7F8018081821729F020838092B1
:101070000001992493940E9472070F5F1F4FFBE6B3
:10108000CF16F3E0DF0609F0B2CF8091000188238C
:1010900059F08150809300018823B1F08FE99FE0DF
:1010A0000197F1F700C00000892DDF91CF911F91CA
:1010B0000F91FF90EF90DF90CF90BF90AF909F90F7
:1010C0008F90089580E0C8CFC051DC4F84E0F701D5
:1010D00091917F0199938150D1F7E6CF0F931F93A0
:1010E000CF93DF932091010110E000E0222311F063
:1010F00004E010E00E947309EC01009739F00297B8
:1011000011F40E949F07C1E0D0E011C00E94A10726
:10111000F801E051FC4F8091040490910504A091E6
:101120000604B091070480839183A283B383CE0128
:10113000DF91CF911F910F9108950E94D407909154
:101140000101E4E0F0E0992311F0F0E0E0E0E0518B
:10115000FC4F30E020E040E0D901AC5FBB4F5C9138
:101160009191591341E09C932F5F3F4F24303105FB
:1011700099F79091FD03940F9093FD0308951F93A9
:10118000CF93DF938091F803882309F44BC00E942A
:10119000D407182F80910101C4E0D0E0882311F01A
:1011A000D0E0C0E0C051DC4F44E050E0BE0180E040
:1011B00094E00E948134488159816A817B81409307
:1011C00000045093010460930204709303040E948E
:1011D0006E08892B11F10E949B078091F9038F5FA4
:1011E0008093F903863070F080910101F0E0E0E037
:1011F000882311F0E4E0F0E0E051FC4F108211820E
:10120000128213820E94E10CC1E0111101C0C0E002
:101210008C2FDF91CF911F9108950E949D0710920E
:10122000F903F0CF0E949D08C1E0811101C0C0E028
:1012300080910101811114C090E080E080519C4FA9
:1012400040910004509101046091020470910304E4
:10125000FC0140835183628373830E94E10CD8CFE9
:1012600084E090E0EBCFE82FF0E0E051FC4F80818C
:10127000089508958091FA03811111C08091D800DA
:1012800080618093D8008AE18A95F1F700C090913F
:10129000D900892F817090FF82E08093FA0381E06A
:1012A0009091FA03913009F080E008950C943A0986
:1012B0000E945609809301010E943A09882321F077
:1012C0000E946709789408950E946D09FBCF63E03E
:1012D00070E082E091E00C94B61C63E070E082E084
:1012E00091E00C94BF1C0F931F93CF93DF938C015D
:1012F00090911B0180911A01D0E0C0E0981759F03D
:1013000082E090E00E94981DEC01892B21F48091ED
:101310001A0180931B018091FB039091FC03082B21
:10132000192B90E080E0012B11F081E090E00E9409
:10133000981D892B71F48091FD0380931A011092FE
:10134000FC031092FB03CE01DF91CF911F910F910F
:10135000089581E090E09093FC038093FB03F3CF2A
:1013600080910101811109C082EDECE8F2E0ACE16D
:10137000B1E001900D928A95E1F70C94D609CF93D4
:10138000DF93D62FC42F0E94C426882351F08D2FBF
:101390000E94C426882329F08C2FDF91CF910C94D2
:1013A000E4268C2FDF91CF910C9405270895CF93DD
:1013B000DF936091E2047091E3048091E4049091E2
:1013C000E5040E941129813099F0823001F10E94D8
:1013D000041F81FF19C0D0E0C0E020E048ED68EDB7
:1013E000CE010E942F102196C633D105B1F70CC053
:1013F000D0E0C0E020E041EB60E0CE010E942F1081
:101400002196C633D105B1F7DF91CF910895D0E091
:10141000C0E02FE94FE360E3CE010E942F10219638
:10142000C633D105B1F7F0CF83E0089560E08EE0D8
:1014300095E00C941417CF93DF93D82FD878C82F4A
:10144000C47460E0DD2329F18BE095E00E9414175D
:1014500060E084E095E0CC2329F160E086E095E04F
:101460000E94141760E08DEF94E00E94141760E072
:10147000DD2311F187EF94E00E94141760E082EF02
:1014800094E00E941417C11122C060E088EE94E03D
:1014900021C088E095E00E941417C11109C060E0E6
:1014A00080E095E00E94141760E08AEF94E0DDCFC1
:1014B00060E082E095E0D4CF84EF94E00E941417BE
:1014C00060E0CC2359F080EF94E00E94141760E0B4
:1014D0008BEE94E0DF91CF910C9414178EEE94E094
:1014E0000E941417D2CFCF93DF93D82FD171C82F7A
:1014F000C27260E0DD2329F185EE94E00E941417AA
:1015000060E08EED94E0CC2329F160E080EE94E081
:101510000E94141760E087ED94E00E94141760E0C9
:10152000DD2311F181ED94E00E94141760E08CEC52
:1015300094E00E941417C11122C060E082EC94E094
:1015400021C082EE94E00E941417C11109C060E02E
:101550008AED94E00E94141760E084ED94E0DDCF02
:1015600060E08CED94E0D4CF8EEC94E00E941417F0
:1015700060E0CC2359F08AEC94E00E94141760E0FC
:1015800085EC94E0DF91CF910C94141788EC94E0F3
:101590000E941417D2CF60E082EB94E00E941417EF
:1015A00060E08CEA94E00C94141783E00E94C42657
:1015B000882329F060E08CE994E00C94141781E012
:1015C0000E94C426882321F060E08CE894E0F5CFE7
:1015D00082E00E94C42660E0882319F08CE794E042
:1015E000ECCF8CE694E0E9CF0E94CB0A0E94160A69
:1015F0000E94160A0E94160A0E94D50A60910D04E4
:1016000070910E0480910F04909110040E946E2B33
:10161000693C71058105910508F46AC00E94532B4D
:1016200060930D0470930E0480930F049093100444
:1016300080910804811104C08091EE0181112CC0B9
:101640006FE080E00E94151660E08FE693E00E9454
:10165000F8166CE080E00E94151681E08093EE01A0
:1016600080910C0490E001968170992780930C047E
:1016700021E030E0281B390B40E6429FC001439F28
:10168000900D11242091350521FF14C060E670E013
:1016900084519D4F0C9426176CE080E00E94151633
:1016A00060E08FE693E00E94F8166DE080E00E9413
:1016B0001516D6CF20910904222329F060E670E0A8
:1016C00084559C4FE7CF20910A0430910B0460E6CB
:1016D00070E02B3031051CF484559F4FDBCF29324D
:1016E00031051CF484599E4FD5CF845D9D4FD2CFD8
:1016F0000895CF930E94CB0A0E94160A0E94160AF0
:101700000E94160A0E94D50A0E94160A0E94160A12
:101710000E946C28C82F0E9495288C2B0E941B0ABF
:101720000E946C28C82F0E9495288C2BCF910C9476
:10173000730A0E94C61490E090930B0480930A04ED
:101740000E94101F8093350560911104709112045E
:1017500080911304909114040E946E2B6136734E95
:101760008641910510F00C9482180E9466178091B2
:10177000F80381110C94F40A0C94790B0F931F93C6
:10178000CF93DF938C01EB018A81882351F00E9473
:10179000532B60931104709312048093130490935D
:1017A00014040A328DE51807B9F040F40C32110523
:1017B000E9F1033E110581F1C1E025C00B328DE551
:1017C0001807B9F00C321D45B9F7CA8183E0CC2364
:1017D00001F10E94E4260BC0CA8181E0CC2361F0B4
:1017E0000E94E42643E062E081E00E94BF09C0E07D
:1017F0000AC0CA8182E0F2CF0E94052743E062E07E
:1018000081E00E94BF098C2FDF91CF911F910F9132
:1018100008950E940527F7CFCA81CC2321F081E0EB
:1018200080930904F0CF10920904C6CFCA81CC235B
:1018300031F081E0809308041092EE01E4CF109221
:101840000804BACF81E00C94351380E00C94351372
:10185000CF93DF939C013A9521153F4168F5EC0148
:10186000CC27D170DC01AA27B270AC014427547098
:101870009C012227387094FF11C080E1CD2B09F420
:1018800080E0AB2B09F08062452B09F08064232BAC
:1018900009F08068FB01DF91CF91099481E0CD2BA5
:1018A00009F480E0AB2B09F08260452B09F08460DD
:1018B000232B81F38860EECFDF91CF910895CF93F2
:1018C000DF93EC01805E9109089720F062E273E2F9
:1018D000209711F46BED70E2CE010E94280C8C2F42
:1018E000DF91CF910C945A20CF93DF93EC010E94AB
:1018F000A020CE01805E9109089720F069E273E292
:10190000209711F462EE70E2CE01DF91CF910C943A
:10191000280C81E008950C94BE0B08950C948D0C56
:101920001F93CF93DF9300D000D00F92CDB7DEB7D7
:1019300049835A836B8330918B0489819A81311159
:101940001DC06623B9F02223A9F00E94D727182FC3
:10195000682F89819A810E94802769817A81812FED
:101960000F900F900F900F900F90DF91CF911F91DC
:101970000C94610D0E94AE27182FEFCF0E94D7273D
:1019800069817A81EDCFFC01262F408151816281EE
:10199000738184810C94900CCF93DF93EC0160E011
:1019A0000E94C30CBE01DF91CF910C948E0C0E945B
:1019B0005E29811102C00E94022A0E94D9120C9451
:1019C000B0090E94041C0E94D7110E9448150C9473
:1019D000940708950E9442230E94E90C2FEF84E3AC
:1019E0009CE0215080409040E1F700C000000C9442
:1019F000AE2B0F931F93CF93DF93EC0161E00E9416
:101A0000C30C8C018A81882319F0C8010E94F2144A
:101A1000BE01C8010E94641BBE01C8010E942B11B7
:101A20008823B9F1BE01C8010E948B0C882389F17B
:101A3000BE01C8010E94AA1B882359F1BE01C8013A
:101A40000E943519882329F1BE01C8010E94871917
:101A50008823F9F0BE01C8010E94AA1A8823C9F0A0
:101A6000BE01C8010E944014882399F08A8188230E
:101A700039F001158CE5180751F00F3D1C4579F040
:101A8000CE01DF91CF911F910F910C94890C0E9490
:101A9000EA0C80E0DF91CF911F910F9108950E9491
:101AA000022AF7CF08950C94520D81E008950C940A
:101AB000550DCF93C82F0E94530D8C2FCF910C94AE
:101AC000570D972F70E026E0929F600D711D112435
:101AD000FB0190E3899FE00DF11D1124EE0FFF1F24
:101AE000EC5EFA4F859194910895CF93DF930E9415
:101AF000610D0E94610EEC01811522E59207E8F567
:101B0000811531E5930708F0ACC0883E910510F5CA
:101B1000803E910570F5883A910570F4853A9105FB
:101B200008F078C08130910521F1009711F10497F8
:101B300000F5D0E0C0E01DC08F3B9105D0F7C85A3A
:101B4000D0E0CC0FDD1FCB58DC4F0990D881C02DE1
:101B5000D4640FC0811540E5940708F066C0C11534
:101B600080E4D80708F05EC0CE019A9581159F41A8
:101B700000F7CE01DF91CF910895811536E59307E7
:101B800018F5811545E5940708F083C0C11584E573
:101B9000D80708F079C09C2F969596959E012370E2
:101BA0003327C115D34508F461C0C1E0D0E002C0BD
:101BB000CC0FDD1F2A95E2F730E2939FC00111247C
:101BC000C82BD92BDA68D5CFC1158AE5D80778F4A8
:101BD000C11599E5D90708F066C0C11528E5D207F7
:101BE00008F4A7CFDC2FCC27C06FD06AC2CFCE01BC
:101BF00090568115904208F09CCF8D2F8F710E94D6
:101C0000F80E90E0982F882788279F719C012C2B35
:101C1000E90147C0C55AD0E0CD55DC4FC881D0E0BE
:101C2000D064A7CFDF70D06AA4CFE4E09695879503
:101C3000EA95E1F783702C2F26952695237040E2D4
:101C4000249F90011124382B8C2F8370C1E0D0E0A9
:101C500002C0CC0FDD1F8A95E2F7C22BD32BDC68C4
:101C600088CFD82FCC27C16FD06A83CFC1E0D0E016
:101C700002C0CC0FDD1F2A95E2F720E2929FC0013F
:101C80001124C82BD92BEBCFDC2FCC27C46FD06A03
:101C900070CF0E94F80EC82FD0E0DC2FCC27CC27C5
:101CA000DF71D06266CF8C2F8F700E94F80E34E007
:101CB000D695C7953A95E1F7CF709C2FEC01D06986
:101CC00058CF82389105B1F1B0F48133910509F410
:101CD00075C048F48932910509F469C08A329105CA
:101CE00009F473C008958533910509F459C0893307
:101CF000910501F10895833E9105A9F138F4803EE4
:101D00009105F9F0823E910549F10895863E9105CD
:101D1000A9F1873E9105C9F1843E910519F52091FD
:101D2000150821FF1FC08091140884FD14C087EEA0
:101D300090E00895209114082370A1F080EE90E0C7
:101D400008952091140820FD47C03091150830FFF8
:101D500009C024FF44C090E080E004C02091140832
:101D600022FDF7CF08952091140822FD3BC0309149
:101D7000150830FDE3CF24FFF5CFEDCF20911408F7
:101D800023FFF0CF24FDE7CFD2CF2091140823FD0D
:101D90002CC03091150831FFEECF84EE90E008950D
:101DA0002091140825FFDECF89E290E0089520916C
:101DB000140825FFD7CF85E390E0089520911408FB
:101DC00026FFD0CF8AE290E008952091140826FFE4
:101DD000C9CF81E390E0089589E390E0089583EE10
:101DE00090E0089582EE90E0089586EE90E00895E8
:101DF0009091140892FF06C0282F28712830F9F41A
:101E0000877F846093FF06C0282F28712831F1F462
:101E1000877E84612091150820FF06C0382F387115
:101E20003830D9F4877F816021FF06C0282F2871C0
:101E30002831D1F4877E816194FD877E0895282F13
:101E400024712430F9F68B7F8860DCCF282F247131
:101E5000243101F78B7E8861DDCF382F317131302D
:101E600019F78E7F8860E0CF282F2171213121F76B
:101E70008E7E8861E1CFEF92FF920F931F93CF93F5
:101E8000DF93EB01E82FD11110C0442321F0F0E0E3
:101E9000EC56F94FE4916E2F7E2F8E2FDF91CF916C
:101EA0001F910F91FF90EF9008950D2F10E0282FB4
:101EB00030E0442329F02C56394FF901249130E0C9
:101EC000F6E0CF9FC0011124EFEFF0E0BF010E94C8
:101ED0001D34AB018C2F90E0880F991FA5E5A49FBE
:101EE000B001A59F700D1124861B970B982F990F99
:101EF000980FBF01601B710B629FD001639FB00DF3
:101F0000729FB00D11248B2F9D9FB0011124672F5C
:101F10007727EF01C61BD70BBE01629FE001639FCD
:101F2000D00D729FD00D11247F01E91AF108E09EB7
:101F3000B001E19E700DF09E700D1124672F772780
:101F4000E61BF70BE29F8001E39F100DF29F100D3F
:101F50001124E12F722F4230510599F048F44115B8
:101F6000510569F04130510581F0EB2F8D2F07C0ED
:101F70004430510569F080F046305105B1F76E2FBD
:101F80008DCFE22F7B2F812FFACFE22F7D2FF7CF3E
:101F9000EB2F822F712FF3CF7B2F822FED2FEFCFDF
:101FA00041E00C943B0F30E020E0869F212D969F6E
:101FB000200D311D1124C9010895E42FF0E0EE0F2A
:101FC000FF1FE45BFE4F6081621B08950C94D00FED
:101FD00045E050E06CE170E086E395E00C949734C6
:101FE00045E050E06CE170E086E395E00C94B53498
:101FF000E6E3F5E08DE0808380915E0390915F03DE
:10200000A091600381839283A3838FE784830C94E0
:10201000F00F80E008950F931F93CF93DF93C82FA5
:10202000D62F8A010E94091096E0C99FB0011124A1
:10203000645E7E4F6D0F711DFB0190819F3F29F003
:10204000F801E80FF11D90838F5FDF91CF911F9111
:102050000F910895E091AC03F091AD030994E091E4
:10206000A803F091A9030994BF92CF92DF92EF9257
:10207000FF920F931F93CF93DF936C017B01FC01C1
:10208000C0818BE0C89FC02D11241BE01C0F012FC5
:10209000173308F006E360913A05669566958091DE
:1020A0003B0590913C050E94D30FB82ED0E0C0179D
:1020B00070F081E0163308F080E0DF91CF911F913E
:1020C0000F91FF90EF90DF90CF90BF900895FE01A9
:1020D000E854FE4F8081F6019181892391F060914F
:1020E000370570913805809139052B2D4C2FF7015C
:1020F00009950E94E60F462F282F672FCE010E94D8
:102100002F102196D4CF6DED7FE00C943410BF9248
:10211000CF92DF92EF92FF920F931F93CF93DF93B3
:102120007C01FC01C0818BE0C89FC02D11241BE005
:102130001C0F012F173308F006E3609137057091EB
:102140003805809139050E94E60FD62EC72EB82E8D
:10215000D0E0C01770F081E0163308F080E0DF9126
:10216000CF911F910F91FF90EF90DF90CF90BF9094
:102170000895FE01E854FE4F8081F7019181892383
:1021800031F02B2D4D2D6C2DCE010E942F1021965C
:10219000E0CFBF92CF92DF92EF92FF920F931F9307
:1021A000CF93DF938C01FC01C0818BE0C89FC02DD1
:1021B00011245BE0F52EFC0EDF2CF6E3FF1510F486
:1021C00046E3D42EC0903805B090390520913A05E9
:1021D00030E4E32E3E2D329F312D1124E32ED0E04A
:1021E000CD1578F081E035E33F1508F480E0DF910C
:1021F000CF911F910F91FF90EF90DF90CF90BF9004
:102200000895FE01E854FE4F8081F80191818923F1
:10221000D9F0FE01EE0FFF1FE45EFE4F60A9E69EBF
:10222000B001112495E0759567959A95E1F7809135
:102230003705680F7C2D8B2D0E94E60F462F282F27
:10224000672FCE010E942F102196CACFE091AA03DA
:10225000F091AB030994CF92DF92EF92FF920F932C
:102260001F93CF93DF93CDB7DEB728970FB6F894BF
:10227000DEBF0FBECDBFFB018281F12C882341F070
:10228000AE014F5F5F4F608181810E940B10F82E7D
:10229000E09015040F2D10E0C8018E0D911D0997D7
:1022A00064F188E090E06C01C01AD10AB8016A5E5E
:1022B0007B4FA60186E194E00E948E34B801625EF5
:1022C0007B4FA6018EE194E00E948E34A601440F5C
:1022D000551FB801660F771F625D7B4F8EE294E059
:1022E0000E948E34B8016A5D7B4FA60186E294E0BD
:1022F0000E948E34EA94E092150410911504DE01D8
:10230000119640E0842F810FF41212C080931504BF
:1023100081E028960FB6F894DEBF0FBECDBFDF91E7
:10232000CF911F910F91FF90EF90DF90CF90089584
:102330005D91252F30E090E0BC016B5E7B4FF90191
:10234000EE0FFF1FE45BFE4F0081FB010183220FB4
:10235000331FF901E45EFE4F21A9FB012187518B58
:10236000880F991FFC01EB5EFB4F128E118E4F5FA1
:10237000C9CF08950E94B9110C94D7090895089502
:10238000CF93DF93FC01C0818BE0C89FC02D112447
:10239000D5EFDC0FC73308F0C6E36C2F8D2F0E94FA
:1023A000BE116C2F8D2FDF91CF910C94BF114F92E6
:1023B0005F926F927F928F929F92AF92BF92CF92D5
:1023C000DF92EF92FF92CF9360913E0470913F04B1
:1023D00080914004909141040E946E2B6B017C011E
:1023E0000E94532B4B015C0180923E0490923F046B
:1023F000A0924004B0924104A0911504E5E1F4E0FC
:102400008A2F90E04FEF5FEF60E070E04C195D09BC
:102410006E097F09A9132AC0809315048091420494
:10242000C0E0811108C080913605C82FC37019F033
:10243000C82FC695C69580917102813009F440C0BD
:10244000882339F1823009F496C0833009F49EC0A4
:10245000CF91FF90EF90DF90CF90BF90AF909F9083
:102460008F907F906F905F904F900895218D328D67
:102470002901712C612C441555056605770520F45A
:1024800081509F5F3296C6CF2C0D3D1D328F218F1C
:10249000F8CF1092720280923B0590923C05A09278
:1024A0003D05B0923E0589E2E5E1F4E0AFE3B5E039
:1024B00001900D928A95E1F781E080937102C8CF77
:1024C00080917502C8133AC090913605937020919F
:1024D000760230E081E09217130609F480E0817003
:1024E00080937402C130A1F1CC2351F1C230A9F123
:1024F000C330C1F180E0909172029F5F90937202AD
:10250000811135C082E08093710280917402811143
:102510002EC0CC23C9F10E94BA1182E792E0CF917C
:10252000FF90EF90DF90CF90BF90AF909F908F90F3
:102530007F906F905F904F900C94C01181E0CFCF4F
:102540008823C9F240E060E080E00E942611D2CFEB
:1025500082E792E00E948710CECF82E792E00E944D
:10256000C910C9CF82E792E00E948310C4CFCC2368
:1025700009F46ECFD0CFC093750280913605837079
:10258000809376020E942A1083E097CF60913B05EA
:1025900070913C0580913D0590913E050E946E2B07
:1025A0006A3071058105910508F452CF10927102CD
:1025B0004FCFE091A603F091A703099510923F0534
:1025C0008FEF9FEF909359058093580590935B058B
:1025D00080935A0590935D0580935C0590935F0509
:1025E00080935E05909361058093600590936305E9
:1025F00080936205909365058093640590936705C9
:10260000809366051092150490932F0480932E04F6
:102610009093310480933004909333048093320478
:102620009093350480933404909337048093360458
:10263000909339048093380490933B0480933A0438
:1026400090933D0480933C040E945E29811104C054
:102650000E94022A0E94F80F0E94E80F809136051E
:102660008C7F11F40C94F80F0895CF93C82F882312
:1026700029F040E060E080E00E942611C09342040F
:10268000CF9108959091360521E0922790933605D9
:102690001092710281110C94F00F089581E00C9456
:1026A000421390913605937099F0811109C094609E
:1026B0009093360510927102662351F00C94F00F3E
:1026C000843010F09C60F4CF880F880F982BF0CFE7
:1026D000089561E00C945113682F909136059695FA
:1026E000969581E0890F843008F081E00C945113B5
:1026F00081E00C946C13682F909136059695969511
:102700008FEF890F09F483E00C94511381E00C944E
:102710007B1390913605937061F080933705609339
:102720003805453608F044E64093390521110C94EC
:10273000F00F0895A6E3B5E01196EC911197F0E043
:10274000282F13964C91139712966C91CF010596F2
:102750000C94891381E00C949A13E6E3F5E09181DF
:10276000282F43816281E92FE550FF0BCF010C94A4
:10277000891381E00C94AD13E6E3F5E0628125E076
:10278000620F08F46FEF9181282F4381892F90E029
:102790000C94891381E00C94BC13E6E3F5E06281AC
:1027A00025E0621B08F460E09181282F4381892F86
:1027B00090E00C94891381E00C94CD13E6E3F5E0EE
:1027C000438125E0420F08F44FEF9181282F628169
:1027D000892F90E00C94891381E00C94DE13E6E3DA
:1027E000F5E0438125E0421B08F440E09181282F69
:1027F0006281892F90E00C94891381E00C94EF138F
:1028000020913A0535E0230F08F42FEF20933A0585
:1028100081110C94F00F089581E00C940014209124
:102820003A0535E0231B08F420E020933A05811196
:102830000C94F00F089581E00C940F140895FC019E
:10284000EE0FFF1FE80FF91FE859FA4F618340832D
:1028500022830895E8E6F5E081836083428333961E
:1028600096E0EA30F907C1F7089566E370E088E67C
:1028700095E00C949A14FA01811101C0FB010994AE
:102880000F931F93CF938C01FB01C281CC2309F4DA
:102890004FC00E946C288272F801E35CFC45E43171
:1028A000F10538F4E551FB4C0C9450340E944E1362
:1028B000C0E08C2FCF911F910F91089546E853E10E
:1028C00068E773E10E943B14F3CF48E753E166E801
:1028D00073E1F8CF49EB53E16AEA73E1F3CF4AEAD7
:1028E00053E169EB73E1EECF4BED53E16AEC73E139
:1028F000E9CF4AEC53E16BED73E1E4CF4DEF53E1E7
:102900006CEE73E1DFCF4CEE53E16DEF73E1DACFA4
:102910004BE154E16CE074E1D5CF4CE054E16BE164
:1029200074E1D0CF81E00E946913C2CF83E0FBCF76
:10293000C1E0BFCF539A4BB1477F5BB15860EFB74F
:10294000F8949B01220F331F260F371F280F391FC2
:102950002817390741F4EFBF8FE594E00197F1F7AD
:1029600000C000000895DC016D91CD0178E05BB9F5
:10297000000000C067FF4BB9660F000000C000C038
:1029800000C04BB900C07A9591F7E2CF8091450421
:1029900008959C013056211540E2340748F0305E1E
:1029A000211540E1340720F0315C21153F4178F4D6
:1029B00099279C01245031092432310578F027529F
:1029C000310981E02E30310550F080E008958F3FCD
:1029D000910579F370F390E080E0EBCF81E008950A
:1029E0000C94C914CF92DF92EF92FF92CF93DF93B2
:1029F0000E94F014882309F444C08091430490910C
:102A000044040097C1F10E945F2B60914504C62FDA
:102A1000D0E09C0150E040E060E67AEE80E090E09B
:102A20000E943134CA01B90125E030E040E050E0B5
:102A30000E94313430E02C1B3D0BB901330F880B61
:102A4000990B0E94183327EA39E747E45DE30E94B7
:102A5000A4336B017C01BE01DD0F880B990B0E9432
:102A600018339B01AC01C701B6010E947B320E9462
:102A7000E732609345040E94472B9093440480936F
:102A80004304DF91CF91FF90EF90DF90CF900895B6
:102A9000CF92DF92EF92FF92CF93DF938091430426
:102AA000909144040E945F2B893E934060F16091B5
:102AB0004504C62FD0E0662777276C1B7D0B072EB9
:102AC000000C880B990B0E94183327EA39E747E47A
:102AD0005DE30E94A4336B017C01BE01DD0F880B16
:102AE000990B0E9418339B01AC01C701B6010E94EB
:102AF0007B320E94E732609345040E94472B9093FB
:102B0000440480934304DF91CF91FF90EF90DF90D6
:102B1000CF900895CF92DF92EF92FF920F931F9381
:102B2000CF93DF936C017B0164E670E088E70E943D
:102B30001C1EEC0197FD12C010E000E0F601E00F52
:102B4000F11F849164E670E00E94781EEC01892BED
:102B500029F40F5F1F4F0E151F0581F70E94FB1E02
:102B6000CE01DF91CF911F910F91FF90EF90DF90F9
:102B7000CF900895EAE0F6E080E092E0DF019C016A
:102B80001D9221503040E1F7F0930F08E0930E08BA
:102B90008FEF9FEF909372048093710408950E94C9
:102BA000140A80936D0480FD0FC080E880936C044C
:102BB0000E94161E6DE070E08BEA97E00E948A1575
:102BC000892B21F080E0089580E2F0CF80916D04A0
:102BD00063E070E081FD26C088EA97E00E948A15D4
:102BE000892B81F76DE070E088E997E00E948A15F3
:102BF000892B41F70E94532B605A75418F4F9F4F8D
:102C000060930A0870930B0880930C0890930D084A
:102C10000E94BA1581E08093700480936F04109233
:102C20006E04089585EA97E0D9CF20916C0436E0D0
:102C3000839FC0011124629F800D911D1124811575
:102C400022E0920714F090E080E0865F994F909325
:102C50000F0880930E08089520910E0830910F08F8
:102C60002450364040916C04642F70E0C9010E94EA
:102C70001D34481B463010F4240F311D211582E00D
:102C8000380710F030E020E0265F394F30930F080E
:102C900020930E0808951F93CF93DF93162F8A3049
:102CA00031F481E0DF91CF911F910C94C5168D30E6
:102CB00011F480E0F7CFC0910E08D0910F0896E094
:102CC000FE01A6E4B4E001900D929A95E1F7803EF2
:102CD000C8F086E0FE0111928A95E9F711111EC035
:102CE000C0910E08D0910F0846E050E0BE0186E486
:102CF00094E00E948134892BF9F4DF91CF911F91E8
:102D00000C942C16F6E08F9FB00111246854784F74
:102D100046E050E0CE010E947834E0CFE0910E080A
:102D2000F0910F089F012A5F3F4F2E173F07C1F216
:102D3000808180958193F9CFCA50D640CE0125E09D
:102D4000969587952A95E1F721E030E0A90102C028
:102D5000440F551F8A95E2F7CA01409171045091C2
:102D60007204842B952B259645E0D695C7954A95F8
:102D7000E1F702C0220F331FCA95E2F7822B932B93
:102D80009093720480937104B8CFCF93382FE09161
:102D90000E08F0910F08EA50F64020916C04622F63
:102DA00070E0CF010E941D34281B822F332369F06D
:102DB00066E00E941134C82FC15010F4CF910895DD
:102DC00060E080E20E944B16F7CF9F01280F311D73
:102DD0002115324018F080E0F0E0E0E08E0F9F2FE8
:102DE000911D865F994F90930F0880930E08E6CF50
:102DF000FF920F931F93CF93DF93EC01F62EFC010C
:102E000001900020E9F78F0101501109C017D10787
:102E100030F0DF91CF911F910F91FF9008956F2DAA
:102E200089910E944B16F2CF1F93CF93DF93EC0151
:102E3000162FFE018491811104C0DF91CF911F9163
:102E40000895612F0E944B162196F3CFCF93DF9305
:102E500020910E0830910F082A503640A901460FE4
:102E6000571F4130524020F060E072E0621B730B4C
:102E70004091710450917204FC01C901620F731FEB
:102E8000C1E0D0E08617970738F050937204409362
:102E90007104DF91CF9108952491DC01A65FB94FB1
:102EA0003C91321781F02C939C01A5E03695279533
:102EB000AA95E1F7DE0102C0AA0FBB1F2A95E2F72F
:102EC0009D014A2B532B01963196DCCF80917004E3
:102ED000811103C080916F0408950E94532B605AA2
:102EE00075418F4F9F4F60930A0870930B08809332
:102EF0000C0890930D0880916F048111EBCF62E074
:102F000070E086E997E00E948A15892B19F781E025
:102F100080936F04DFCF2F923F925F926F927F92E8
:102F20008F929F92AF92BF92CF92DF92EF92FF92D9
:102F30000F931F93CF93DF9380917004882369F0E0
:102F400020917104309172042115310531F0809186
:102F50006E0461E070E0882399F0DF91CF911F91BA
:102F60000F91FF90EF90DF90CF90BF90AF909F9028
:102F70008F907F906F905F903F902F9008958F5F1C
:102F8000082F10E01B01082E02C0220C331C0A94EB
:102F9000E2F7A90142215321452B89F390916D0459
:102FA00090FD44C08295880F8076809379029801C5
:102FB000369527953695279520937C02815E8093E0
:102FC0007A0210927D0224E630E047E050E067E7A5
:102FD00072E088E70E94A71E892B09F0BECFA801E6
:102FE00025E0440F551F2A95E1F780916D0480FD7F
:102FF0002BC0465F594F04E610E020E230E060E469
:1030000088E70E94CE1E892B09F0A7CF0E94661781
:10301000E101C095D0958091710490917204C8230C
:10302000D923D0937204C093710497CF880F880F6F
:10303000880F8093790210927C02895F80937A02D4
:1030400083E080937D02BFCFECE4F4E080E2DF0117
:103050001D928A95E9F7A2EBB3E00EEA13E086EB46
:10306000C82E83E0D82E97E0592E772473948D9143
:10307000E80129918E01240F352F311D265F394F2C
:10308000E82FF0E0E45BFB4F90E080E0652C681AED
:10309000872C082E01C0880C0A94EAF77901A12C2C
:1030A000E701B9907E01B820662D6A196770962EE7
:1030B000062E000C770BDB2D01C0DD0F9A94EAF78A
:1030C0007195619571096770772701C0B6946A950B
:1030D000EAF7BD2A6081962E9B289082A39468E02F
:1030E000A612DECF019631968830910579F6CA1680
:1030F000DB0609F0BCCF04E610E020E230E04CE44F
:1031000054E07DCF80916F0490917004911103C0C1
:1031100091E089270895882369F062E070E084E9EE
:1031200097E00E948A15892B19F080916F04089509
:1031300010926F0480916F04EBCF0F931F938091D7
:103140007004882319F160E080E00E9415160E9447
:10315000990B0E948B1780916F048823B9F00E940D
:10316000532B00910A0810910B0820910C08309104
:103170000D08601B710B820B930B6F3F7F4F8F4FBE
:103180009F4720F41F910F910C9482181F910F916B
:1031900008950F931F93CF93DF93C42FD22FFC0179
:1031A00082818823C9F0409375040E94472B909335
:1031B00074048093730480E28C0F883008F050C050
:1031C000C77081E001C0880FCA95EAF7DF91CF91FF
:1031D0001F910F910C94DB2010917504141335C0CE
:1031E00080917304909174040E945F2B883C910538
:1031F00060F5C0E2CD0F1D17B9F080E2810F883075
:1032000040F4177081E001C0880F1A95EAF70E9418
:10321000E220C83048F481E09D2F977001C0880FEC
:103220009A95EAF70E94DB20802F0E94C820C830C0
:10323000B8F4D77081E001C0880FDA95EAF7DF9122
:10324000CF911F910F910C94E22080E28C0F883077
:1032500038F4C77081E001C0880FCA95EAF7EFCF54
:10326000DF91CF911F910F9108950F939C01CB0196
:10327000243F4CE5340759F1A8F4293DFCE53F070C
:1032800001F12A3D4CE53407D1F1283D3C4591F44C
:1032900006E221EE41EE68ED7CE50E94C91880E06F
:1032A0000F910895263FFCE53F07E9F0B0F0273F76
:1032B0003C45F9F0FC018281882339F110927504B4
:1032C000EFCF07E225EE45EE69ED7CE5E6CF06E2BD
:1032D00021EE40EE64EF7CE5E0CF07E225EE44EE20
:1032E00065EF7CE5DACF06E221EE42EE66EF7CE5A3
:1032F000D4CF07E225EE46EE67EF7CE5CECF08E2BD
:1033000021E045EE6AED7CE5C8CF81E0C9CFCF93DF
:10331000DF93EC01FB018281882309F419C1C230DB
:10332000FCE5DF07C0F1C6319CE5D90730F09E010E
:103330002B5F3C452930310570F50E94712990932F
:10334000150880931408C031ECE5DE0709F4CFC0FE
:1033500008F05BC0C8308CE5D80709F4B6C088F522
:10336000C430ECE5DE0709F4A8C0C0F4C2308CE537
:10337000D80709F49CC0809114088260C330DC45F2
:1033800009F498C080911408909115080E947F2933
:103390000E94422380E0DF91CF910895809114082C
:1033A0008061C630ECE5DE0709F484C08091140822
:1033B0008860C730DC4508F47DC0809114088062C5
:1033C00079C0CC308CE5D80709F489C070F48091BD
:1033D00014088C60CA30ECE5DE0709F46BC008F411
:1033E00078C0809114088E7F65C0CE308CE5D807F8
:1033F00009F479C0809114088B7FCF30DC4508F444
:1034000059C0809114088F7E55C0CC3FECE5DE0793
:1034100009F457C030F5C3318CE5D80709F46FC003
:1034200078F4C131ECE5DE0709F465C0C231DC4552
:1034300009F0A8CF0E944223809114088F773AC0E8
:10344000C5318CE5D80709F462C008F476C08091D4
:1034500015088160CB3FDC4509F094CF80931508B7
:1034600091CFC115FDE5DF0709F44DC088F48091C7
:1034700015088D7FCE3F9CE5D90781F38091150813
:103480008E7FCF3FDC4550F3809115088360E6CFF7
:10349000C230FDE5DF0709F459C008F444C080E0FC
:1034A000C330DD4509F06ECF0E94042A6BCF8091B6
:1034B000140881608093140865CF8091140884609B
:1034C000F9CF809115088260C9CF8091140880647B
:1034D000F1CF0E944223809114088068EBCF809145
:1034E00014088D7FE7CF80911408877FE3CF809108
:1034F00014088F7DDFCF809114088F7BDBCF809104
:103500001408837FD7CF809115088C7FA7CF809137
:10351000140882FB992790F921E0922790FB82F909
:1035200090FB83F9C7CF80911508982F90959170E3
:103530008E7F892B90FB81F991CF0E94422390913D
:103540001408892F97FB87F98058B4CF81E0ACCF5E
:1035500081E021CFCF93DF93EB0186319C4511F5BC
:103560000E946C289A81992399F08A7A91E009F453
:1035700090E090937604811109C089E20E94472867
:103580000E94AE2880E0DF91CF91089585E3F6CFC9
:1035900080917604811104C089E20E944E28F0CF08
:1035A00085E3FBCF81E0EFCFCF93DF93EC0181E0A8
:1035B000898B8F810E946F2888850E9482280E94B3
:1035C000AE28EA81FB81309739F06C897D89CE0184
:1035D0000696DF91CF910994DF91CF910895CF9313
:1035E000DF93EC018881823039F4FB018281938181
:1035F0000E945F0C81E08B87DF91CF910895FC01E1
:103600008081813029F4FB01808191810C945F0CD1
:10361000823021F4FB0182819381F8CF0895FC016F
:103620008081813029F4FB01808191810C94740C9C
:10363000823021F4FB0182819381F8CF0895EF92CB
:10364000FF920F931F93CF93DF93EC018A85811133
:1036500034C0EB80FC8087E5F81A26E12E9DC0017E
:103660002F9D900D1124DC01A151BE4F1496ED91B8
:10367000FC911597309731F054966D917C918B5059
:103680009E4F099586E18E9D80018F9D100D11241E
:1036900001511E4FF80187810E947528F80180852D
:1036A0000E9488280E94AE28188219861B861E82D6
:1036B0001D821092780410927704DF91CF911F91B0
:1036C0000F91FF90EF900895DF92EF92FF920F938A
:1036D0001F93CF93DF937C01FB018281882391F0BC
:1036E00080917E028F3F71F0CFEED1E010E000E0DC
:1036F000DD24D39480917E02082E000C990B801754
:10370000910744F4DF91CF911F910F91FF90EF90BB
:10371000DF9008958E818823C9F089859A858E155A
:103720009F0539F480917704909178048E159F0558
:1037300069F0DF86FC86EB868989811103C0CE01A2
:103740000E94D41ACE0106960E941F1B0F5F1F4FC6
:103750006696D0CFEF92FF920F931F93CF93DF9394
:103760007C0197558F3F910509F0D8F520917E0295
:10377000022E000C330B2817390714F480937E02B5
:10378000FB01228136E1389F8001399F100D112401
:10379000E801C151DE4F288B92818E81992349F136
:1037A000FA86E9868F5F8E830E94472B9E878D87DE
:1037B0000E9495288F830E946C2888870E947F280A
:1037C0009885892B8887E881F981309731F06C8959
:1037D0007D89C8018B509E4F0995F0927804E09244
:1037E000770481E0DF91CF911F910F91FF90EF90CF
:1037F00008958823B1F38989882399F3C8018B50F0
:103800009E4F0E941F1BEDCFEF92FF920F931F93CD
:10381000CF93DF9380917E0210E006E18F3FC1F5E8
:10382000DF91CF911F910F91FF90EF900895029F2C
:10383000F001039FF00D1124E151FE4FE288F3885F
:10384000E114F10419F488ECE82EF12C029FE00158
:10385000039FD00D1124C151DE4F8E818823B9F012
:103860008D859E850E945F2BE816F90680F4109FD7
:10387000700111248989811105C0C70181519E4FB2
:103880000E94D41AC7018B509E4F0E941F1B1F5FBE
:10389000212F30E080917E02082E000C990B8217B8
:1038A00093072CF6BDCF8EE14A9B02C08150E1F711
:1038B0004A9BFECF08955A9880E28A95F1F75A9A6A
:1038C0000895FC013BE03A95F1F720E090E080E0BC
:1038D00031E040E14A95F1F7880F4A9B02C08160D0
:1038E000232742E04A95F1F7000040E14A95F1F7BD
:1038F0009F5F6913EECF90E19A95F1F799B132E0AD
:103900003A95F1F7000040E14A95F1F792FB9927CB
:1039100090F992272081920F90830895EF92FF9261
:103920000F931F93CF93DF930F92CDB7DEB719821A
:103930008C017C01E60EF11C0E151F0561F481E07F
:103940009981911180E00F90DF91CF911F910F919C
:10395000FF90EF9008950E94531C68E0CE010196FD
:103960000E94611CF80181938F01E6CF90937B0444
:1039700080937A0460937904529A5A9A08959093A6
:103980007B0480937A046093790452985A9AEA9A55
:10399000E9E6F0E080818F7C808308956150770BA9
:1039A00091E001C0990F6A95EAF720E031E09111AA
:1039B00008C0222391F05A9A80E28A95F1F75A982A
:1039C0000895492F482339F05A9A232740E24A950F
:1039D000F1F79695ECCF5A98F9CF5A98EDCFFF9220
:1039E0000F931F93CF93DF93EC018C01060F111DF2
:1039F000C017D10731F4DF91CF911F910F91FF9044
:103A00000895F9900E945B1C68E08F2D0E94CE1CE7
:103A1000EFCF1F920F920FB60F9211240F931F93A7
:103A20002F933F934F935F936F937F938F939F93C6
:103A3000AF93BF93EF93FF93CF93DF930F92CDB7E5
:103A4000DEB719820E94531C67E0CE0101960E94E6
:103A5000611C082F069506950695982F92959570EE
:103A6000202F2570920F292F237096959695877099
:103A7000920F891344C08981811141C080917904DA
:103A80008017E8F120E12A95F1F75A9A529A82E0DC
:103A90008A95F1F700C0A8E00A9FC00111240091A7
:103AA0007A0410917B04080F191F5A98F801658158
:103AB000662321F0868197810E94EF1C0E945B1C87
:103AC000F0E1FA95F1F75A9852985A9A20E12A951E
:103AD000F1F7D80112966C911297662331F1139683
:103AE0008D919C910E948E1CD801ED91FC918823B0
:103AF00011F088E001C082E080830E94531C0F9087
:103B0000DF91CF91FF91EF91BF91AF919F918F91F5
:103B10007F916F915F914F913F912F911F910F91E5
:103B20000F900FBE0F901F901895ED91FC91E1CF73
:103B30000F931F93CF93DF932091790428171906D1
:103B40000CF471C08C0193E0000F111F9A95E1F7FE
:103B5000C0917A04D0917B04C00FD11FF894529A7F
:103B60005A9825E02A95F1F70000982F96959570C0
:103B70008570980F892F837096959695980F092BCD
:103B80000E945B1C00C067E0802F0E94CE1C80E179
:103B90008A95F1F752985A9A4A9B17C087E090E0AD
:103BA0004A9915C06D81662321F18E819F810E9403
:103BB0008E1C81111EC0529A5A9AE881F98182E0C6
:103BC0008083789482E090E00DC000C0E5CF01973B
:103BD00071F4529A5A9AE881F98181E0808378944D
:103BE00081E090E0DF91CF911F910F91089500C087
:103BF000D7CF0E94531C20E22A95F1F75A98529A87
:103C000080E18A95F1F76A81662321F08B819C819E
:103C10000E94EF1C0E945B1CE881F981108278945D
:103C200090E080E0DFCF84E090E0DCCF1092B9003C
:103C30008CE08093B8000895EF92FF920F931F934A
:103C4000CF93DF93182FEB011092BC0084EA80938E
:103C5000BC000E94472B7C018091BC0087FF27C0DD
:103C60008091B900887F883029F08091B900887FE1
:103C70008031D9F51093BB0084E88093BC000E948A
:103C8000472B8C018091BC0087FF24C02091B90094
:103C9000287F90E080E02831B1F081E090E020348E
:103CA00011F490E080E09195819591090CC0CF3F8F
:103CB000DC0791F20E94472B8E199F098C179D07F4
:103CC00058F28EEF9FEFDF91CF911F910F91FF90F0
:103CD000EF900895CF3FDC07A9F20E94472B801B8D
:103CE000910B8C179D0770F2ECCF8FEF9FEFEBCF0E
:103CF0000F931F93CF93DF93EB018093BB0084E876
:103D00008093BC000E94472B8C018091BC0087FFF0
:103D100011C02091B900287F81E090E0283211F491
:103D200090E080E0919581959109DF91CF911F916D
:103D30000F910895CF3FDC0741F30E94472B801B72
:103D4000910B8C179D0708F38EEF9FEFEECFCF926C
:103D5000DF92EF92FF920F931F93CF93DF936B014C
:103D60008A017901B9010E941C1EE6010C0D1D1D7E
:103D7000C017D10761F424E92093BC00DF91CF91F3
:103D80001F910F91FF90EF90DF90CF90089597FDD6
:103D9000F2CFB70189910E94781EEACFCF92DF92CD
:103DA000EF92FF920F931F93CF93DF93C62F6A0179
:103DB0007901B8010E941C1E97FD0CC0B8018C2F20
:103DC0000E94781EE601EC0CFD1CCE15DF0511F0FB
:103DD00097FF0CC024E92093BC00DF91CF911F9185
:103DE0000F91FF90EF90DF90CF900895B8018991E7
:103DF0000E94781EEACF84E98093BC0008959093D6
:103E00008104809380040895E0918004F0918104FE
:103E1000309721F00190F081E02D099480E0089521
:103E2000E0918004F0918104309711F480E00895CE
:103E30000190F081E02D09950895E0918004F091C2
:103E40008104309799F020918B02222359F0209120
:103E5000140827FF07C0DC012C9111962C931197B1
:103E600025E02C930280F381E02D099408952091A0
:103E70007E0430917F042817390771F090937F04F6
:103E800080937E04E0918004F0918104309721F0CA
:103E90000680F781E02D0994089520917C043091EB
:103EA0007D042817390771F090937D0480937C047A
:103EB000E0918004F0918104309721F00084F18535
:103EC000E02D0994089585B7806885BF85B780681F
:103ED00085BF0895089508950C946A1F08950C9461
:103EE0006E1F0E94631F0E946B1F0C946C1F81E069
:103EF00008950C94771F089508950E943E2B0E9408
:103F0000A30780E00E94CF150E94BF2B0C946F1F67
:103F1000AF92BF92CF92DF92EF92FF920F931F93D7
:103F2000CF93DF93CDB7DEB72A970FB6F894DEBFF5
:103F30000FBECDBF0E947B1F0E947C1F0E94BF0846
:103F4000B82E0E94791F882309F463C083E8C82E25
:103F500084E0D82E10E000E0A02E802F0E943309CC
:103F6000E82EF601F1906F01F81609F44CC080912B
:103F70000F0581FD0E9439099F2D9E2580E0FF24B9
:103F8000F394292F2F21D1F18E83AF82EF2081E08E
:103F900009F480E088870E94472B8160782F9A87F8
:103FA00089874E815F8168858A850E942B20F80170
:103FB000ED57FB4F8081F826F0820E949D18B110CA
:103FC0000E9466170E94041F90918204891791F144
:103FD0000E94041F809382042A960FB6F894DEBFD5
:103FE0000FBECDBFDF91CF911F910F91FF90EF904A
:103FF000DF90CF90BF90AF900C94590D8F5FFF0C66
:10400000863009F0BECF0F5F1F4F0830110509F051
:10401000A3CF8FEF89838A831B820E94472B816005
:10402000782F9D838C8349815A816B818D810E9479
:104030002B20C3CF2A960FB6F894DEBF0FBECDBF9C
:10404000DF91CF911F910F91FF90EF90DF90CF9074
:10405000BF90AF900895CF93DF93CDB7DEB72B9786
:104060000FB6F894DEBF0FBECDBF4F835887698768
:104070007A878B871E821D8285E0FE013796DE01DE
:10408000119601900D928A95E1F749815A816B81D1
:104090007C818D819E812B960FB6F894DEBF0FBE7A
:1040A000CDBFDF91CF910C94B825FC018081918127
:1040B0000C941928CF93C82F882309F43FC08CEFA4
:1040C0008C0F813AA0F46C2F80917F029091800236
:1040D0000E941D2A882329F08C2F0E944E280E94BE
:1040E000AE288C2F0E944728CF910C94AE2880E2F6
:1040F0008C0F883048F4C77081E001C0880FCA95E2
:10410000EAF70E946F28F0CFEBE5EC0FE33040F4C4
:10411000F0E0EC51FC4F808190E0CF910C94371F80
:10412000C85AC73158F4EC2FF0E0EE0FFF1FEA54E5
:10413000FC4F80819181CF910C944D1FCF910895B8
:10414000882329F19CEF980F913A20F40E944E2881
:104150000C94AE2890E2980F983050F4877091E05C
:1041600001C0990F8A95EAF7892F0E947528F0CF30
:104170009BE5980F933020F490E080E00C94371F7B
:10418000885A873120F490E080E00C944D1F089508
:10419000CF93C82F0E945A20C93349F42FEF87EEDE
:1041A00093E0215080409040E1F700C000008C2F48
:1041B000CF910C94A020882321F00E946F280C94AA
:1041C000AE280895882321F00E9475280C94AE280B
:1041D0000895BF92CF92DF92EF92FF920F931F93B9
:1041E000CF93DF937C01D62FC72FFC010581029569
:1041F0000F70128111110E948F280E946528D82EFD
:10420000882391F01123E9F08C2F807F803421F0F6
:1042100080E28D0F8830A8F082E00E94F9280E9489
:10422000652891E0D82ED926CC2EC2949FE0C922D1
:10423000FBE0FC15A8F1EC2DF0E0E150FB4C0C94F8
:104240005034D12CF1CF0C2F0F70C07F11F002959C
:10425000007F1123A9F0002359F080E28D0F8830F0
:1042600010F0D11109C0802F0E946F280E94AE2843
:104270008D2F0E945A2014C0802F0E948228F6CFD2
:104280008D2F0E94A020002359F080E28D0F8830EE
:1042900010F0D1112BC0802F0E9475280E94AE28EB
:1042A000EC2DE850FF0B349720F40E94041F0E946D
:1042B000590DDD2009F47DC10E94612880FD79C17E
:1042C000F70112820E945B280E94E426C7010E9427
:1042D000FA220E945B28DF91CF911F910F91FF90EE
:1042E000EF90DF90CF90BF900C940527802F0E9415
:1042F0008828D4CF2C2F2F70B22EC07FC03219F057
:10430000B29480EFB822DD2339F0D13019F11123B6
:1043100061F1002321F1ACCF112381F0011106C01E
:104320000E9495288B290E94DB20BACF0130C1F76B
:104330000E9495288B290E949B28B2CF011106C0AC
:104340000E94A4288B2D0E94E220AACF013009F4FC
:10435000A7CFF6CF112329F0063008F0A1CF8B2D7F
:10436000E2CF053008F09CCFEDCF002359F3D933CD
:1043700049F43FEF87EE93E0315080409040E1F701
:1043800000C000008D2F0E94A0208ACF8C2F869520
:104390008695837069F0813009F082CF8D2F9C2F34
:1043A0009370111102C090E080E00E944D1F78CF01
:1043B0008D2F9C2F9370111102C090E080E00E941D
:1043C000371F6ECF8C2F837009F041C0111168CF59
:1043D0004D2F429546954770440F440F0D2F0F7097
:1043E00010E030E020E0042E04C0000F111F221F57
:1043F000331F0A94D2F760E070E0CB01D4FF0FC006
:104400006FE070E080E090E004C0660F771F881FC7
:10441000991F4A95D2F76095709580959095C695AD
:10442000C695C370602B712B822B932BC23049F041
:1044300058F4C13019F00E94762632CF0E946426CB
:104440002FCF0E9488262CCF0E94622629CF8695E6
:10445000112311F08C2F8170882309F421CF4D2F67
:10446000429546954770440F440F0D2F0F7010E092
:1044700030E020E0042E04C0000F111F221F331F64
:104480000A94D2F760E070E0CB01D4FF0FC06FE078
:1044900070E080E090E004C0660F771F881F991FCE
:1044A0004A95D2F76095709580959095C695C6957A
:1044B000C370602B712B822B932BC23049F058F4C0
:1044C000C13019F00E945B27EBCE0E944927E8CE4D
:1044D0000E946D27E5CE0E949E26E2CECF7011236A
:1044E00029F08C2F0E94E4268D2F1DCF8D2F0E9446
:1044F000E2208C2F0E940527D3CED23F89F160F4B1
:10450000D03FC9F0D13F29F1112309F442C0011174
:10451000AFCE8C2F8F7121C0D33F39F1D43FA1F79B
:10452000112369F1CF718C2F0E94E42663E08C2F58
:104530000E94E428B5CE112341F0053008F0B0CE3A
:104540008C2F8F710E942827ABCE063008F0A8CEA2
:10455000F7CF8C2F8F71112369F20E94E426A0CE31
:104560008C2F8F711123C9F3C5CF112329F08C2F04
:104570008F710E94CF2694CE0E94AA2691CE81E010
:104580000E94F928023008F48BCE82E00E94F928BC
:1045900087CE002359F0D93309F0F4CEEFEFF7EED0
:1045A00023E0E150F0402040E1F7EACE8C2F8F71FC
:1045B000A1CFDF91CF911F910F91FF90EF90DF90EE
:1045C000CF90BF9008950F931F93CF93DF93EC018B
:1045D000688179818A810E9423288C010E947F272B
:1045E0000E946126B801CE01DF91CF911F910F91FA
:1045F0000C94E920CF93DF93EC018B819C81892B74
:1046000029F08881998189238F3F59F4DF91CF91D7
:104610000895CE010E94E322CE01DF91CF910C9448
:10462000CC0CCE010E94F90C8111F3CF0E946528B9
:10463000882361F38A81882349F382E0DF91CF9157
:104640000C94F928882321F00E9482280C94AE282B
:104650000895882321F00E9488280C94AE2808959C
:104660000E948F280E9492280E94AE2890E080E04D
:104670000E94371F90E080E00C944D1F0E94552847
:104680000C9430230E947C280C943E23E92FE29561
:10469000EF70E250EE3070F4F0E0E55FFA4C0C940D
:1046A0005034803F19F020F4883E20F481E00895D2
:1046B000843FE1F380E00895883EC0F3813FD1F765
:1046C000F5CF93FB882780F908950E9419280C9450
:1046D0004623CF93DF9300D000D00F92CDB7DEB743
:1046E0000F900F900F900F900F90DF91CF91089542
:1046F000CF93DF9300D000D000D0CDB7DEB72696A1
:104700000FB6F894DEBF0FBECDBFDF91CF910895F5
:104710001F93CF93DF93C0918C0416E080918D049A
:104720008C1304C0DF91CF911F910895D0E01C9F9E
:10473000F0011D9FF00D1124E257FB4F4081518184
:1047400062817381848195810E9478232196C7704C
:10475000E5CF4091BE045091BF046091C0047091B8
:10476000C1048091C2049091C3040C9478231F93D8
:10477000CF93DF938091C304807FA9F48091C0041C
:10478000882389F080918C04C0918D046091BE04CF
:104790007091BF04A091C104B091C204D62FD72359
:1047A00016E0C81304C0DF91CF911F91089590E0E7
:1047B000109711F0DF3F19F401968770F2CF189F20
:1047C0009001199F300D1124F901E257FB4F4181EF
:1047D0004713F2CF40814613EFCF42814111ECCF16
:1047E000438154814A1B5B0B483C510528F780915B
:1047F000C3048F7080618093C304F901ED56FB4FB1
:1048000080818F70806180838EEB94E00E94FA2219
:10481000DF91CF911F910C948823AF92BF92CF92DA
:10482000DF92EF92FF920F931F93CF93DF93CDB759
:10483000DEB761970FB6F894DEBF0FBECDBF8C0117
:1048400085E0F801DE011D9601900D928A95E1F751
:10485000F80140815181E2808EEBC82E84E0D82E91
:104860006091C1047091C2046115710509F461C1C0
:104870009091BE042091BF04892F82238F3F09F4B9
:1048800058C1A380B480F090C004F501E61BF70B7B
:10489000FF2009F4FCC08091C304382F307FE83C2E
:1048A000F10508F0B2C0311179C0FE2C251323C0E8
:1048B000941321C0E1101FC08F7080618093C304E6
:1048C0000E94A923C6010E94FA228091C304F80124
:1048D00085838F2D61960FB6F894DEBF0FBECDBFD6
:1048E000DF91CF911F910F91FF90EF90DF90CF90CC
:1048F000BF90AF900895AB2829F0842F85238F3F78
:1049000009F033C180E0F82FF170DF2E80FF3CC04A
:1049100080918C0420918D0436E0821315C04D8760
:104920005E878D859E850E941928292F22952F70DC
:104930002230F0F0243018F59F70F1F0F8019581E5
:10494000907FD1F4D12C1EC090E0389FF001399FA8
:10495000F00D1124E257FB4F6181651306C06081A1
:10496000641303C062816E110FC001968770D5CFAA
:104970009F7011F0882331F3805E883018F3C801EE
:104980000E94FA22FD2CA5CFEE2009F4A2CF80913F
:10499000C30481608093C304F12C9BCF251306C010
:1049A000941304C0F801EE2009F48DC04D875E8792
:1049B0008D859E850E946523882319F1EE2009F1DB
:1049C0008091C304803270F02091BE043091BF0406
:1049D00038872F831986BB86AA868C87CE010796D7
:1049E0000E94FA2286E0F801AEEBB4E001900D924D
:1049F0008A95E1F70E94B7230E94A923FF24F3942C
:104A000068CFC8010E94FA22F9CF311113C07A2D64
:104A1000B98AA88A6E2D89890E9469238EEB94E059
:104A20000E94FA2286E0F60111928A95E9F70E9427
:104A3000A923B2CF25130FC094130DC0E1100BC0F2
:104A4000F8018583C8010E94FA2286E0F6011192DE
:104A50008A95E9F73ECF4D875E878D859E850E94BA
:104A60006523882371F2EE2061F28091C3048032C5
:104A700008F4B8CF2091BE043091BF043A83298353
:104A80001B82BD82AC828E83CE010196A9CFE83C09
:104A9000F10508F041C0FE2CEE2009F4B2CF251339
:104AA0002AC0941328C08091C30480FD1BC0982F96
:104AB000907FC1F0F8018583903F31F0982F907F6F
:104AC000905F8F70892B8583C8010E94FA2286E04F
:104AD000F801AEEBB4E001900D928A95E1F70E94E7
:104AE000A923F7CE86E0F801AEEBB4E001900D9279
:104AF0008A95E1F7EECE4D875E878D859E850E9473
:104B0000652381116FCF8091C30481608093C304BA
:104B1000C8010E94FA22DDCE7A2DB98AA88A6E2DAC
:104B200089890E94692386E0F60111928A95E9F746
:104B3000D6CFEE2009F465CF4D875E878D859E85A3
:104B40000E946523F82E882309F45BCF86E0F801E4
:104B5000AEEBB4E001900D928A95E1F78EEB94E014
:104B60000E9455200E94B723BACF81E08E25CBCE7C
:104B70001F93CF93DF93CDB7DEB72C970FB6F89482
:104B8000DEBF0FBECDBF4F83588769877A878B877B
:104B90009C87CE0107960E940D24882369F08A85A0
:104BA0009B85892B39F04F815885842F85238F3F32
:104BB00009F071C016E05FC086E0FE013796DE01A5
:104BC000119601900D928A95E1F78A859B85892B34
:104BD00089F38F81988589238F3F61F320918D041C
:104BE00030E0C90101968770992740918C044817DD
:104BF000190671F40E94422310928D0410928C04C5
:104C000086E0EEEBF4E0DF011D928A95E9F7D2CF62
:104C100096E0929FD001939FB00D1124A257BB4FF5
:104C2000FE01319601900D929A95E1F780938D04E3
:104C30000E948823BFCF819FC001112482579B4FC0
:104C40000E940D248823E9F0E0918C041E9FF0015E
:104C50001124E257FB4F408151816281738184812D
:104C600095810E94782380918C0490E00196877052
:104C7000992780938C0480918C0490918D048913E2
:104C8000DACF2C960FB6F894DEBF0FBECDBFDF9102
:104C9000CF911F91089569857A858B859C850E94A7
:104CA000782388CF08950C9452260E94532660934F
:104CB000E6047093E7048093E8049093E9040C946D
:104CC000302308950C9455260F931F930091E6040A
:104CD0001091E7042091E8043091E904602B712BD6
:104CE000822B932B1F910F910C9455260F931F939A
:104CF0000091E6041091E7042091E8043091E90462
:104D000060237123822393231F910F910C945526C6
:104D10000F931F930091E6041091E7042091E8049B
:104D20003091E90460277127822793271F910F9103
:104D30000C9455260C9452260C949A260E949C267C
:104D40006093E2047093E3048093E4049093E50499
:104D50000C94302360E070E0CB010C949E2661152A
:104D600071058105910529F481E0442361F080E01B
:104D70000895DC01CB0104C0B695A795979587955A
:104D80004A95D2F781700895482F6091E20470919E
:104D9000E3048091E4049091E5040C94AF260F9312
:104DA0001F9341E050E060E070E08A019B0104C085
:104DB000000F111F221F331F8A95D2F7C901B801B6
:104DC0001F910F910C949E260F931F9341E050E08A
:104DD00060E070E004C0440F551F661F771F8A957E
:104DE000D2F78091E2049091E304A091E404B091A1
:104DF000E5048A019B01082B192B2A2B3B2BC901A7
:104E0000B8011F910F910C949E260F931F9341E0C0
:104E100050E060E070E004C0440F551F661F771F2C
:104E20008A95D2F7CB01BA016095709580959095DF
:104E30000091E2041091E3042091E4043091E50430
:104E400060237123822393231F910F910C949E263C
:104E50000F931F9341E050E060E070E004C0440F06
:104E6000551F661F771F8A95D2F78091E2049091B3
:104E7000E304A091E404B091E5048A019B010827B2
:104E800019272A273B27C901B8011F910F910C94BC
:104E90009E260F931F930091E2041091E30420914A
:104EA000E4043091E504602B712B822B932B1F912E
:104EB0000F910C949E260F931F930091E204109182
:104EC000E3042091E4043091E504602371238223FC
:104ED00093231F910F910C949E260F931F93009183
:104EE000E2041091E3042091E4043091E50460278A
:104EF0007127822793271F910F910C949E26089566
:104F0000E92FEE0FE90FEE0F8E0F982F977041E00B
:104F100001C0440F9A95EAF786958695869595E0A7
:104F2000899FF0011124EC53FB4F30E020E070E04A
:104F30005191DF011197CB01022E02C09695879502
:104F40000A94E2F7817081958527842385278C93C5
:104F50002F5F3F4F2530310559F70895E92FEE0FA8
:104F6000E90FEE0F8E0F982F977086958695869590
:104F700025E0829FF0011124EC53FB4F50E040E00C
:104F800080E0219130E0092E02C0369527950A94E1
:104F9000E2F721703327042E01C0220F0A94EAF7AA
:104FA000822B4F5F5F4F4530510559F70895BF92EF
:104FB000CF92DF92EF92FF920F931F93CF93DF93E5
:104FC0008C01C090E204D090E304E090E404F090FF
:104FD000E5048091E6049091E704A091E804B09183
:104FE000E904C82AD92AEA2AFB2ACFE1D0E0BC2E5C
:104FF000D701C6010C2E04C0B695A7959795879545
:105000000A94D2F780FD0EC0219788F7B12C8B2D22
:10501000DF91CF911F910F91FF90EF90DF90CF9094
:10502000BF900895B8018C2F0E94750D019761F310
:10503000EECFCF93DF93EC010E94D727BE01DF9123
:10504000CF910C94750D1F93CF93DF93EB0190914B
:105050008B04992331F0CB01DF91CF911F910C94F8
:105060001928882379F0CB010E94D727182F682FA1
:10507000CE010E948027BE01812FDF91CF911F9129
:105080000C94750DCB010E94AE27182FF4CF682F1A
:1050900080917F02909180020C949D2A682F8091CC
:1050A0007F02909180020C94A82A80917F029091B7
:1050B00080020C94B32A8091EA04859585958595A4
:1050C00008958091EA04877008959091EA0497709A
:1050D00081E009F480E0089580910E050895909193
:1050E0000E05892B80930E050895809590910E05ED
:1050F000982390930E05089510920E0508958091BF
:105100000D05089590910D05892B80930D05089547
:10511000809590910D05982390930D050895109218
:105120000D05089510920C0508958091EB040895E3
:1051300008950C9498289091EB04981721F080938F
:10514000EB040C94992808958091EB04882329F0AE
:105150001092EB0480E00C9499280895E0917F026E
:10516000F091800280910E058083E0917F02F091A2
:105170008002808190910D05892B8083E0917F02D0
:10518000F0918002808190910C05892B8083909111
:10519000EB04992381F0E0917F02F09180028081FD
:1051A000892B808380917F02909180020E94092A3E
:1051B00081110E94A42880917F02909180020C941A
:1051C0001D1F08950C94E12898E0899F90011124F7
:1051D000622B6093EA040E94E4268091EA0485959C
:1051E000859585950C94E2281092EA0480E00C9451
:1051F000E2289091EA04809589238093EA04282F7D
:10520000277071F4282F082E000C330B9217130609
:1052100039F08595859585950E9405270C94F4288D
:105220000895CF92DF92EF92FF926C01EE24FF245B
:1052300020E0C114D104E104F10419F0C701B60162
:1052400020E1C72ED82EE92EFF24C114D104E10499
:10525000F10419F0285FC701B6016B017C0154E02D
:10526000F694E794D794C7945A95D1F7C114D10412
:10527000E104F10419F02C5FC701B6016B017C0158
:1052800042E0F694E794D794C7944A95D1F7C114B5
:10529000D104E104F10419F02E5FC701B60196951F
:1052A000879577956795672B682B692B09F02F5F9A
:1052B000822FFF90EF90DF90CF90089590E080E0F4
:1052C0000E94AF3421E08C3E9E4F09F020E0822FF7
:1052D000089582E090E00C94A73483E090E00C9471
:1052E000A734CF9384E090E00E94A734C82F81E2D6
:1052F00090E00E94A734982F8C2FCF910895CF93E0
:10530000C92F682F84E090E00E94C5346C2F81E2A1
:1053100090E0CF910C94C534AB01BC018FE090E0DC
:105320000C94D734AB01BC0183E190E00C94D734EA
:1053300060E070E0CB010C94922960E070E0CB015A
:105340000E948C290C9498296CEE7EEF90E080E00E
:105350000E94E33460E082E090E00E94C53460E0A7
:1053600083E090E00E94C5341092E6041092E704B6
:105370001092E8041092E90460E084E090E00E945A
:10538000C53460E081E290E00E94C53460E085E0D1
:1053900090E00E94C53460E086E090E00E94C53451
:1053A0006FEF87E090E00E94C53440E050E0BA0122
:1053B00088E090E00E94D73460E08DE090E00E94A9
:1053C000C53440E050E0BA0188E190E00E94D73453
:1053D00060E087E190E00E94C53440E050E0BA010F
:1053E0008CE190E00E94D73460E080E290E00E947F
:1053F000C53440E050E0BA0188E190E00E94D73423
:105400000C949D290C94A429682F8EE090E00C94B4
:10541000C534FC01329680918B02882321F0809163
:1054200014089EE187FF96E080E0915008F408950B
:1054300021912223D1F38F5FF8CF662301F12091D0
:105440008B022223F1F02091140827FF1AC0462F67
:105450004695469546954E3190F4677021E030E0D0
:1054600002C0220F331F6A95E2F7840F911DFC01E1
:10547000828190E02823392381E0232B69F480E0A6
:105480000895FC01329608962191261721F0E8171D
:10549000F907D1F7F4CF81E008959C01FC01329621
:1054A0009FEF80E04191461751F09F3F19F4411161
:1054B00001C0982F8F5F8630A9F79F3F09F40895A8
:1054C000290F311D97FD3A95F90162830895FC017A
:1054D000329608962191261303C0DF0111971C9282
:1054E000E817F907B9F70895E62FE695E695E695EA
:1054F000EE3168F4E80FF92FF11D677021E030E01C
:1055000001C0220F6A95EAF78281822B8283089577
:10551000E62FE695E695E695EE3170F4E80FF92F63
:10552000F11D677021E030E001C0220F6A95EAF7B3
:105530002095828128232283089520918B022223A3
:1055400029F02091140827FD0C94742A0C944D2AFC
:1055500020918B02222329F02091140827FD0C941E
:10556000882A0C94672AFC01329680918B0288234A
:1055700051F08091140887FF06C08EE1DF011D9273
:105580008A95E9F7089586E0F9CF08950C94220CE6
:105590000E94C62A80911A08843049F110921005A1
:1055A00088E190E020E40FB6F894A895809360001D
:1055B0000FBE2093600080E00E94590D0E94C62A11
:1055C00083B7817F846083BF83B7816083BF789412
:1055D000889583B78E7F83BF0FB6F894A895809186
:1055E0006000886180936000109260000FBE089593
:1055F0000895CF930E94C52A0E94BF080E94F82AEE
:10560000C0E08C2F0E943309811105C0CF5FC830E4
:10561000C1F7CF91089581E0FCCF0C94250C0E9436
:1056200042230E94041F0E94590D0C940D2B1F92BF
:105630001FB61F9211248F939F93AF93BF938091B6
:105640001005811113C08091100890911108A0914C
:105650001208B09113084196A11DB11D8093100846
:1056600090931108A0931208B0931308BF91AF91C3
:105670009F918F911F901FBE1F90189582E084BD4F
:1056800093E095BD9AEF97BD80936E0008952FB774
:10569000F8948091100890911108A0911208B0918F
:1056A00013082FBF08952FB7F894609110087091D8
:1056B000110880911208909113082FBF08959C0142
:1056C0004FB7F8948091100890911108A09112089A
:1056D000B09113084FBF821B930B0895CF92DF92B6
:1056E000EF92FF922FB7F894C0901008D090110855
:1056F000E0901208F09013082FBFA7019601261B17
:10570000370B480B590BCA01B901FF90EF90DF909E
:10571000CF90089578941F921FB61F9211248F93F3
:105720009F93AF93BF938091100890911108A0911F
:105730001208B09113080196A11DB11D80931008A5
:1057400090931108A0931208B0931308BF91AF91E2
:105750009F918F911F901FBE1F90189587E797E725
:10576000909301088093000888E19AE00FB6F894BE
:10577000A895809360000FBE90936000FFCF0E94B9
:105780005E29811102C00E94022A0E946929809329
:105790000F050E94712990931508809314080E94A8
:1057A0006D29682F70E090E080E00E946226609191
:1057B000E2047091E3048091E4049091E5040C9478
:1057C0009C268091310508950895CF93DF9300D0F2
:1057D0000F92CDB7DEB790911A08943019F58983EE
:1057E0007B836A8382E08093E9008FEF9091E800E9
:1057F000815095FD06C095ED9A95F1F70000811155
:10580000F5CF8091E80085FF0DC050E040E063E0F7
:1058100070E0CE0101960E94E92D8091E8008E771C
:105820008093E8000F900F900F90DF91CF91089533
:10583000BC0184E00C94E52BBC0183E00C94E52BC7
:10584000CF93DF93EC0180918B028823B1F180919B
:10585000140887FF32C060E282E08093E9008FEF96
:105860009091E800815095FD06C095ED9A95F1F76D
:1058700000008111F5CF8091E80085FF1BC0809169
:105880008B0270E050E040E0811104C050E040E045
:1058900068E070E0CE010E94E92D8091E8008E77EB
:1058A0008093E80080E2FE01A1E1B5E001900D9255
:1058B0008A95E1F7DF91CF91089568E081E0CDCF3F
:1058C00080911908811109C00E94792F0E94D62F5A
:1058D0008091E20084608093E2000895109219089C
:1058E0000895089508950C940F2B42E061EC81E037
:1058F0000E94F52E42E261EC82E00C94F52E80913C
:105900001C08833009F45FC030F48130C1F182306B
:1059100009F49BC008958A3009F487C08B3009F4DC
:105920006DC0893009F04EC080911B08813209F0AA
:1059300049C080911F0890912008029708F042C04A
:105940008091E800877F8093E8008091E80082FFE3
:1059500035C09091F3008091F200029729F4809174
:10596000F1008B7F813021F48091F100809331052B
:105970008091E8008B778093E8000C94292F809128
:105980001B08813AF9F48091E800877F8093E80052
:1059900080911F0890912008892B61F460E281E1D9
:1059A00095E070E00E94382E8091E8008B7780931C
:1059B000E800089560E090E080E0F3CF80911A085D
:1059C0008111C3CF089580911B08813AD9F7809146
:1059D0001F0890912008892BA9F78091E800877F04
:1059E0008093E8008091E80080FFFCCF80918B02DB
:1059F0008093F1008091E8008E77BDCF80911B08E5
:105A0000813201F780911F0890912008892BD1F6EF
:105A10008091E800877F8093E8000E94292F809181
:105A20001D0880938B020C94422380911B088132C5
:105A300049F68091E800877F8093E8000E94292F33
:105A400080911E0880933205089580911B08813A49
:105A500009F0B8CF8091E800877F8093E8008091BB
:105A6000E80080FFFCCF80913205C2CF84B7877FEA
:105A700084BF0FB6F894A8958091600088618093E8
:105A80006000109260000FBE80E890E00FB6F894BE
:105A900080936100909361000FBE0E94711F0E946D
:105AA000792F0E94D62F8091E20084608093E200DB
:105AB00078940E945F320E947D1F81E892E00E94EC
:105AC000FF1E80911A08853039F00E94881F0E94BD
:105AD0007B1F0E947C1FF5CF0E94C82A8091180866
